:020000040800F2
:1000000078080020C9010008E9170008B70E0008A9
:10001000E517000875060008A1230008000000008D
:10002000000000000000000000000000B51C0008F7
:100030009108000800000000191900083D1E000882
:10004000E3010008E3010008E3010008E301000800
:10005000E3010008E3010008410900085D09000808
:10006000E3010008E3010008E3010008E3010008E0
:10007000E3010008E3010008E3010008E3010008D0
:10008000E3010008E3010008E3010008E3010008C0
:10009000E3010008E3010008E3010008E3010008B0
:1000A000E3010008E3010008E3010008E3010008A0
:1000B000A11E0008E3010008E3010008E3010008B5
:1000C000E3010008E3010008E3010008E301000880
:1000D000E3010008F11F00082D200008E3010008DB
:1000E000E3010008E3010008E301000800F002F862
:1000F00000F05AF80AA090E8000C82448344AAF168
:100100000107DA4501D100F04FF8AFF2090EBAE865
:100110000F0013F0010F18BFFB1A43F0010318473B
:100120009C230000BC2300000A444FF0000C10F890
:10013000013B13F0070408BF10F8014B1D1108BF65
:1001400010F8015B641E05D010F8016B641E01F805
:10015000016BF9D113F0080F1EBF10F8014BAD1C55
:100160000C1B09D16D1E58BF01F801CBFAD505E073
:1001700014F8016B01F8016B6D1EF9D59142D6D3CD
:10018000704700000023002400250026103A28BFF5
:1001900078C1FBD8520728BF30C148BF0B607047F9
:1001A0001FB51FBD10B510BD00F0A8F81146FFF730
:1001B000F7FF02F035F900F0C6F803B4FFF7F2FFDD
:1001C00003BC00F0CDF8000009488047094800470B
:1001D000FEE7FEE7FEE7FEE7FEE7FEE7FEE7FEE7F7
:1001E000FEE7FEE704480549054A064B7047000054
:1001F000411E0008ED000008780200207808002069
:100200007804002078040020032A40F2308010F0A7
:10021000030C00F0158011F8013BBCF1020F6244A1
:1002200098BF11F801CB00F8013B38BF11F8013B32
:10023000A2F1040298BF00F801CB38BF00F8013BDF
:1002400011F0030300F02880083AC0F0088051F84C
:10025000043B083A51F804CBA0E80810F5E7121D5A
:100260005CBF51F8043B40F8043BAFF30080D20779
:1002700024BF11F8013B11F801CB48BF11F8012B45
:1002800024BF00F8013B00F801CB48BF00F8012B68
:10029000704770477047704710B5203AC0F00B8028
:1002A000B1E81850203AA0E81850B1E81850A0E87A
:1002B0001850BFF4F5AF5FEA027C24BFB1E81850D4
:1002C000A0E8185044BF18C918C0BDE810405FEA44
:1002D000827C24BF51F8043B40F8043B08BF7047C0
:1002E000D20728BF31F8023B48BF11F8012B28BFC5
:1002F00020F8023B48BF00F8012B7047754600F01C
:100300002BF8AE4605006946534620F007008546A7
:1003100018B020B5FFF766FFBDE820404FF000069B
:100320004FF000074FF000084FF0000B21F00701DD
:10033000AC46ACE8C009ACE8C009ACE8C009ACE820
:10034000C0098D46704710B50446AFF300802046C3
:10035000BDE81040FFF731BF004870471802002089
:1003600001491820ABBEFEE72600020070470000DE
:1003700010B504464FF02070B8490860012001F024
:100380003BFC0020B64908700CE0B44801680068E6
:10039000401EB24A106029B9B24800F06DF9B24867
:1003A000007A10BDAE4800780128EED14005AB4977
:1003B000086001F0E5FB0CE0A84801680068401EF9
:1003C000A64A106029B9A74800F056F9A648007A55
:1003D000E7E7A64800781A28EED1A348007920283C
:1003E000EAD1A148007A0028E6D14FF400109B49D9
:1003F000086001F075FB0CE0984801680068401E39
:10040000964A106029B9974800F036F99648007A64
:10041000C7E7964800781A28EED1934800796028FB
:10042000EAD19148007A0028E6D101F0E5FB4FF4CB
:100430007A7001F0DFFC4FF0807000F01DF94FF092
:10044000207086490860012001F0D6FB0020844915
:1004500008700CE0814801680068401E7F4A106007
:1004600029B9804800F008F97F48007A99E77C486C
:1004700000780128EED140057849086001F080FB42
:100480000CE0764801680068401E744A106029B983
:10049000744800F0F1F87448007A82E773480078F5
:1004A0001A28EED1704800792028EAD16E48007AE7
:1004B0000028E6D14FF400106849086001F024FBE1
:1004C0000CE0664801680068401E644A106029B963
:1004D000644800F0D1F86448007A62E76348007825
:1004E0001A28EED1604800796028EAD15E48007A87
:1004F0000028E6D101F080FB4FF47A7001F07AFC1D
:100500004FF0807000F0B8F84FF020705349086049
:10051000012001F071FB0020514908700CE04F48A8
:1005200001680068401E4D4A106029B94D4800F02E
:10053000A3F84D48007A34E7494800780128EED105
:1005400040054649086001F01BFB0CE04348016888
:100550000068401E414A106029B9424800F08CF8FA
:100560004148007A1DE7414800781A28EED13E48FC
:1005700000792028EAD13C48007A0028E6D14FF4DF
:1005800000103649086001F0D3FA0CE033480168E6
:100590000068401E314A106029B9324800F06CF8FA
:1005A0003148007AFDE6314800781A28EED12E480D
:1005B00000796028EAD12C48007A0028E6D101F0C1
:1005C0001BFB4FF47A7001F015FC002024490870E1
:1005D0004FF400102149086001F0E6FA0CE01F48D2
:1005E00001680068401E1D4A106029B91D4800F0CE
:1005F00043F81D48007AD4E61C4800781A28EED14A
:10060000194800796128EAD11748007A0028E6D114
:100610004FF4001011490860204601F011FB0CE076
:100620000E4801680068401E0C4A106029B90D4848
:1006300000F022F80C48007AB3E60C4800781A283B
:10064000EED1094800796128EAD10748007A0028EC
:10065000E6D1074800F010F80020A2E62C000020A8
:100660004C00002000000505BC01002060000020B7
:100670000000010100BFFEE770B50546182414E034
:1006800025FA04F0C6B27EB11021094800F011FC31
:10069000642106FB01F001F0ADFB1021044800F0DD
:1006A00006FC642001F0A6FB083C002CE8DA70BDD3
:1006B000000801400EB50121084601F061F94FF430
:1006C0007A70ADF804004720ADF800000020ADF8C6
:1006D0000600ADF802008DF8080069464FF0804032
:1006E00001F028FC0121880701F0F8FB01221146E6
:1006F000900701F016FC0121880701F0F5FB0EBD03
:1007000008B54FF4E06001F0DDF81C208DF8000022
:1007100000208DF8010003208DF8020001208DF8E3
:100720000300684601F096F808BD000010B51C48AB
:10073000C07B012810D11B48006806280CD319483B
:10074000194902681648FFF75FFD164800781449FA
:10075000C87300F09BFE22E01148C07B1149096874
:10076000884217D10F480068062813D30C48C27B73
:100770000C480D4903680A4801F01AF820B110220C
:1007800007490A48FFF740FD00200549C87300F0FB
:100790007DFE04E000F07AFE00200149C87310BD20
:1007A0009C01002044000020AC010020310000200A
:1007B00010B5044634B1012C29D0022C50D0072C9E
:1007C00057D152E04FF400102B49086001F074F942
:1007D0000CE0294801680068401E274A106029B9CA
:1007E0002648FFF749FF2648007A10BD25480078C3
:1007F0001A28EED1224800794428EAD12048007A0C
:100800000028E6D12048FFF737FF0020EDE74FF43E
:1008100000101949086001F09FF90CE016480168C2
:100820000068401E144A106029B91448FFF724FFDD
:100830001348007AD9E7134800781A28EED11048F7
:1008400000794528EAD10E48007A0028E6D10C4804
:10085000807A0928E2DC0A49887AFFF789FDC4E733
:1008600001200A49C8730020BFE700F05FFF0020A5
:10087000BBE70120B9E700002C00002000000505BF
:10088000BC01002060000020000001019C0100204C
:1008900070470000017809294ED2DFE801F0053DDC
:1008A000414D454D4D4D4900411C084609781029E0
:1008B00014D008DC012925D002291BD0042911D02D
:1008C000082927D106E0202910D040291ED08029F0
:1008D00020D113E00121194A11701BE00221174AAF
:1008E000117017E00421154A117013E00521134A15
:1008F00011700FE00721114A11700BE008210F4A17
:10090000117007E00A210D4A117003E000210B4A23
:10091000117000BF00BF0FE00321084A11700BE007
:100920000621064A117007E00921044A117003E00C
:100930000B21024A117000BF00BF70473000002039
:1009400010B5012000F060F820B1012002490870C4
:1009500000F012F810BD00004C00002010B502207D
:1009600000F052F820B102200249087000F004F8AB
:1009700010BD00004C0000200149086070470000D5
:10098000140401400EB50121052001F009F800F022
:100990002CFF0120ADF8080004208DF80B0002A9FF
:1009A000184800F0F9F90021084600F0D5F90120B7
:1009B000009000208DF8040008208DF8050001202B
:1009C0008DF80600684600F033F80220ADF8080004
:1009D00004208DF80B0002A90A4800F0DDF901217E
:1009E000002000F0B9F90220009000208DF80400EA
:1009F0000C208DF8050001208DF80600684600F0F7
:100A000017F80EBD00080140014600200022074BE8
:100A10001B6803EA0102054B14331B680B4013B13A
:100A20000AB1012000E000207047000000040140EE
:100A3000002123498279002A3AD00A4612680368C5
:100A40009A430B461A600A1D126803689A430B1DED
:100A50001A60027911440A6803681A430A60184A46
:100A60000832126803689A43154B08331A601A1D3E
:100A7000126803689A43124B0C331A604279102AA9
:100A80000ED11A1F126803681A430D4B08331A60FF
:100A90001A1D126803681A43094B0C331A600DE0E3
:100AA0000749427911440A6803681A430A6005E05D
:100AB000027911440A6803689A430A60704700008B
:100AC000000401400149C860704700000020024056
:100AD00030B5044604254FF4302000F06FF8054689
:100AE000042D17D10C48006940F002000A49086142
:100AF00008464461006940F0400008614FF430202E
:100B000000F05CF805460448006941F6FD710840B4
:100B100001490861284630BD0020024004200B49ED
:100B2000C96801F0010109B101200EE00749C96857
:100B300001F0040109B1022007E00449C96801F08D
:100B4000100109B1032000E004207047002002409A
:100B50000348006940F080000149086170470000C7
:100B60000020024070B504460D460426F00200F055
:100B700025F80646042E11D10948006940F001000D
:100B8000074908612580F00200F018F8064604487D
:100B9000006941F6FE71084001490861304670BDA8
:100BA00000200240024803494860034848607047FB
:100BB0002301674500200240AB89EFCD00B5024616
:100BC0000423FFF7ABFF034603E0FFF7A7FF03464D
:100BD000521E012B01D1002AF7D102B90523184674
:100BE00000BD000010B50020354908704FF400101A
:100BF0003449086000F0C4FF09E032480168006829
:100C0000401E304A106011B92F48007A10BD2F489D
:100C100000781A28F1D12C4800792028EDD12A48F3
:100C2000007A0028E9D14FF400102649086000F04E
:100C300057FF09E0234801680068401E214A106000
:100C400011B92148007AE1E7204800781A28F1D14B
:100C50001D4800796028EDD11B48007A0028E9D1B1
:100C60004FF400101749086000F0B2FF11E015487A
:100C700001680068401E134A106051B91448FFF71C
:100C8000FBFC14480068401C124908600E48007ABA
:100C9000BCE70E4800781A28E9D10B480079632890
:100CA000E5D10948007A0028E1D10748847A01F0AB
:100CB00033FB22460121092001F088FB0020A5E733
:100CC0004C0000202C000020BC010020600000200F
:100CD00000000707280000202DE9F84F0746884646
:100CE0000024A24600251A4EA3464FF00409002016
:100CF0000090FFF757FF4FF0010B3420FFF7E2FEA3
:100D000000BF07E012494A1402FB0510FFF7E0FE9E
:100D100081466D1C5D4502D2B9F1040FF2D008E0A6
:100D200017F804A051463046FFF71CFF8146B61C59
:100D3000641C0848864204D2B9F1040F01D144452D
:100D4000EEDBFFF705FF024E00240098BDE8F88FA8
:100D5000008000080084000830B500228B071C0FBB
:100D60000F2303FA04F20B4B8C1053F824309343F7
:100D7000084C8D1044F8253023468C1053F824304D
:100D80008C07240F00FA04F42343024C8D1044F81E
:100D9000253030BD080001402DE9F0410246002514
:100DA0000026002000230024002791F803C00CF047
:100DB0000F0591F803C00CF0100CBCF1000F03D02C
:100DC00091F802C04CEA050591F800C0BCF1000F93
:100DD00031D0146800202BE04FF0010C0CFA00F326
:100DE000B1F800C00CEA03069E4220D183004FF008
:100DF0000F0C0CFA03F7BC4305FA03FC4CEA04049D
:100E000091F803C0BCF1280F06D14FF0010C0CFA89
:100E100000FCC2F814C00AE091F803C0BCF1480F0E
:100E200005D14FF0010C0CFA00FCC2F810C0401CB8
:100E30000828D1D31460B1F800C0BCF1FF0F34DD35
:100E4000546800202EE000F1080C4FF0010808FA69
:100E50000CF3B1F800C00CEA03069E4221D18300D6
:100E60004FF00F0C0CFA03F7BC4305FA03FC4CEAF5
:100E7000040491F803C0BCF1280F05D100F1080C5F
:100E800008FA0CF8C2F8148091F803C0BCF1480FBE
:100E900007D100F1080C4FF0010808FA0CF8C2F86D
:100EA0001080401C0828CED35460BDE8F081416119
:100EB00070470161704700BFFEE721B1028842F42C
:100EC0008062028004E002884FF6FF331A400280FD
:100ED0007047000070B505460E4614464FF420409A
:100EE0007A4908600BE0794801680068401E774A3B
:100EF000106021B9092000F0C6FAC0B270BD4FF4ED
:100F00000031734800F04CF90028ECD10121704801
:100F100000F02EF94FF480506C4908600BE06B48EC
:100F200001680068401E694A106021B90A2000F07B
:100F3000AAFAC0B2E2E76749654800F0D1F8002894
:100F4000EDD0002264480178614800F091FA4FF436
:100F500080505E4908600BE05C4801680068401EF4
:100F60005A4A106021B90B2000F08DFAC0B2C5E7D3
:100F70005A49574800F0B4F80028EDD001215448F0
:100F800000F0C3F80021524800F07BFA4FF4805083
:100F90004E4908600BE04D4801680068401E4B4A0E
:100FA000106021B9022000F06EFAC0B2A6E74B49EA
:100FB000891C474800F094F80028ECD0314644489A
:100FC00000F05FFA4FF48050404908600BE03F4862
:100FD00001680068401E3D4A106021B90C2000F0F5
:100FE00052FAC0B28AE73D49891C394800F078F8C6
:100FF0000028ECD00121364800F0BAF84FF48050B8
:10100000324908600BE0314801680068401E2F4AF1
:10101000106021B90D2000F036FAC0B26EE72D49FC
:101020002B4800F05DF80028EDD001222A48017815
:10103000274800F01DFA4FF48050244908600BE067
:10104000224801680068401E204A106021B90E2025
:1010500000F019FAC0B251E71E49491C1C4800F0C3
:101060003FF80028ECD028E0012C07D100211848D7
:10107000FFF723FF0121164800F086F84FF42040C7
:10108000124908600BE0114801680068401E0F4AD1
:10109000106021B9032000F0F6F9C0B22EE70D4927
:1010A0003F310B4800F01CF80028ECD0084800F055
:1010B000DBF928706D1C601E84B2002CD4D1012194
:1010C0000348FFF7FAFE012018E700005001002056
:1010D0000054004001000300480100208200070086
:1010E00070B502460024002500230020958A138B4A
:1010F0001B0445EA030626F07F4404EA01068E42FB
:1011000001D1012000E0002070BD21B1028842F031
:101110000102028004E002884FF6FE731A4002804A
:101120007047000008B50121480500F029FC0121A5
:10113000082000F035FC4020ADF8000003208DF8B9
:1011400002001C208DF8030069460848FFF724FEC2
:101150008020ADF8000003208DF802001C208DF8DF
:10116000030069460148FFF717FE08BD000C014067
:1011700021B1028842F48072028004E002884FF6B6
:10118000FF631A400280704721B1028842F4007266
:10119000028004E002884FF6FF531A400280704735
:1011A0000CB50246002000230193009300920B0F20
:1011B000019321F07F41019B1BB1009B14330093ED
:1011C00003E0090C009B18330093009B1B680B4045
:1011D0000BB1012000E000200CBD00002DE9F04320
:1011E00085B004460D460026B1460427DFF8CC80C2
:1011F000A6884FF6C0700640684600F0E1FBDDF8B7
:1012000008802F48B8FBF0F01FFA80F946EA09067B
:10121000A68020884FF6FE710840208000262949CC
:10122000286888420CD828684000B8FBF0F087B2E4
:10123000042F00DA04273E4309F10100208427E04F
:10124000E8884BF6FF71884206D1286800EB400021
:10125000B8FBF0F087B209E0286800EBC00101EBB1
:101260000010B8FBF0F087B247F48047C7F30B00DB
:1012700008B947F0010747F4004006434FF4967061
:1012800009FB00F04FF47A7190FBF1F0401C2084D0
:10129000A683208840F00100208026884FF6F53094
:1012A0000640A8886989084306432680A8892989B9
:1012B0000843208105B0BDE8F083000000127A00E9
:1012C00040420F00A086010070B504460D46012182
:1012D0004548FFF74DFF4FF48050444908600AE04D
:1012E000424801680068401E404A106019B9002059
:1012F00000F0C9F870BD3E493B48FFF7F1FE0028F9
:10130000EED000223B480178374800F0B1F84FF4A6
:101310008050364908600AE0344801680068401E81
:10132000324A106019B9012000F0ADF8E2E7324905
:101330002D48FFF7D5FE0028EED000212A4800F006
:10134000A0F84FF48050294908600AE02748016856
:101350000068401E254A106019B9022000F093F879
:10136000C8E72549891C2048FFF7BAFE0028EDD0C0
:1013700029461D4800F085F84FF480501B4908604D
:101380000AE01A4801680068401E184A106019B93E
:10139000022000F078F8ADE71749891C1248FFF7E2
:1013A0009FFE0028EDD021780F4800F06AF84FF436
:1013B00080500E4908600AE00C4801680068401E31
:1013C0000A4A106019B9032000F05DF892E70A4953
:1013D000891C0548FFF784FE0028EDD00121024852
:1013E000FFF7D2FE012085E70054004050010020A5
:1013F00001000300480100208200070070B50025AD
:10140000FFF790FE00F00EF8002406E02A19D1B292
:10141000034A1019FFF758FF641C042CF6DB70BD5B
:101420004B0100201FB50020ADF804004BF6FF7003
:10143000ADF806000A20ADF808004FF48060ADF862
:101440000A000001ADF80C00054800906946054807
:10145000FFF7C4FE01210348FFF757FE1FBD000040
:10146000801A0600005400400146088AC0B2704746
:1014700012B141F0010102E04FF6FE731940018202
:1014800070470182704701460020704707E0002145
:1014900005480068401E044A1060044A115402487E
:1014A00000680028F3D1704744000020AC01002000
:1014B00010B5424800680F280FD24148007809282B
:1014C0000BDC3F4800783F493C4A126888543B484F
:1014D0000068401C394908606FE0394800780A28E4
:1014E0001ED13948006890B93848C37B3348374922
:1014F0000268344800F05CF918B1012032490860F4
:1015000008E033480068401C3149086002E00020D0
:101510002D490860FFF7BAFF00202E49C8734CE040
:10152000274800780B283ED127480068C8B92948C9
:10153000C07BB0B92548C37B2048244902682148B4
:1015400000F036F910B100F0E7FE07E0204800682F
:10155000401C1F4908602048FFF78EF8FFF796FFF0
:101560002BE01948006830B91A48C07B012802DB1B
:10157000FFF7DCF821E01448006801280DD10F487E
:101580000068012809D10F490878FFF711F9FFF722
:101590007DFF00200C4908600FE0FFF777FF002077
:1015A0000949086009E00A480068401C08490860C9
:1015B000FFF76CFF00200449086010BD44000020C4
:1015C00030000020AC010020480000203100002045
:1015D000280000209C0100200000050510B54FF4F4
:1015E00080511548FFF763FC022208211348FFF7DA
:1015F00071FC13480068642817D34FF08070FFF720
:101600003BF80E48FFF746F90E480078092802DD3E
:101610000D48006810B1FFF74BFF00E000BF00204D
:101620000749086000F0DEFC02E000200449086081
:1016300000200649087010BD000C0140490100203F
:101640004401002030000020440000204C00002015
:1016500010B50020304908704FF400102F49086081
:1016600009E02E4801680068401E2C4A106011B93C
:1016700000F098FE10BD2A480078A528F1D129482D
:1016800000781428EDD126488078FD2840D12648DE
:10169000C37B13220146224800F08AF8A8B32048F1
:1016A000C07C012806D002280CD003281FD00428B3
:1016B0002CD120E000220121092000F087FE00F05B
:1016C0002BFE24E0002006E0154A00F11401515CD5
:1016D000154A1154401C1028F6DB10211248FFF760
:1016E000FBFA00220221092000F070FE0FE0012029
:1016F000FFF75EF80BE00020FFF75AF80446224699
:101700000421092000F062FE01E001E000BF00BFFB
:1017100000F048FE00BFADE74C0000202C00002088
:10172000D6010020980100203100002010B54FF4B0
:10173000FA7000F05FFB00F063FE4FF400101649F2
:1017400008600AE0144801680068401E124A1060F0
:1017500019B91248FEF790FF10BD11480078FB2818
:10176000F0D1104800782E28ECD1002406E00C4877
:10177000015D0D4A04F10B001154641C2E2CF6D3AC
:1017800000F010FE00221146372000F01FFE07482F
:10179000FEF772FF00BFDFE72C0000200000050508
:1017A000D601002098010020540100200000010112
:1017B000F0B504460D461646002100220DE0994280
:1017C00009DA8818205C6F5CB84201D1491C04E03A
:1017D0000021521C01E00120F0BDF01A9042EEDA27
:1017E0000020F9E700BFFEE7704708B54FF4C0607E
:1017F00000F068F806208DF8000001208DF8010047
:101800008DF802008DF80300684600F023F80720E9
:101810008DF80000684600F01DF808BD08B54FF4CB
:10182000A06000F04FF825208DF8000001208DF811
:1018300001008DF802008DF80300684600F00AF8F8
:1018400026208DF8000002208DF80200684600F086
:1018500001F808BD70B5002100230F22C47804B33D
:10186000154C246804F4E064C4F5E064210AC1F175
:101870000403CA40447804FA03F1847814402143F5
:1018800009010E4C0678A155047804F01F050124C7
:10189000AC4005786D11AD0005F1E025C5F80041BB
:1018A00009E0047804F01F050124AC40044D0678DB
:1018B000761145F8264070BD0CED00E000E400E034
:1018C00080E100E002490143024A116070470000D4
:1018D0000000FA050CED00E010B5024600200C4BAC
:1018E000186820F00300104318600A4B1B6843F08F
:1018F0000403084C2360012901D130BF00E020BF60
:10190000044B1B6823F00403024C236010BD00004D
:101910000070004010ED00E07047000008B50121A4
:10192000042000F03DF85020ADF8000003208DF8B1
:10193000020010208DF8030069460F48FFF72CFACB
:1019400050210D48FFF7B3FA0121082000F028F8D4
:101950004FF44070ADF8000003208DF80200102015
:101960008DF8030069460548FFF716FA4FF44071F9
:101970000248FFF79CFA08BD00080140000C014036
:1019800029B1064AD2690243044BDA6104E0034AF2
:10199000D2698243014BDA617047000000100240B7
:1019A00029B1064A92690243044B9A6104E0034A52
:1019B00092698243014B9A61704700000010024017
:1019C00030B500210022002400232D4D6D6805F064
:1019D0000C0121B1042905D0082923D105E0294DA6
:1019E000056022E0274D05601FE0254D6D6805F478
:1019F0007012234D6D6805F48034022505EB924288
:101A00001CB9214D554305600BE01D4D6D6805F473
:101A100000351DB11C4D5543056002E0194D55437D
:101A2000056002E0174D056000BF00BF144D6D68F2
:101A300005F0F0010909154D6B5C0568DD40456056
:101A40000F4D6D6805F4E061090A104D6B5C456847
:101A5000DD4085600A4D6D6805F46051C90A0B4D83
:101A60006B5C4568DD40C560054D6D6805F440411F
:101A7000890B074D6B5CC568B5FBF3F5056130BD9F
:101A80000010024000127A0000093D0014000020FE
:101A900024000020002000BF04E00021044A11546B
:101AA000411CC8B21A28F8DB0021024A11707047A5
:101AB000BC0100206000002010B500F0E7F8002411
:101AC00006E00548015D054800F013FC601CC4B247
:101AD000162CF6DB10BD0000150100200038014077
:101AE00010B500F0D3F8002406E00548015D054874
:101AF00000F0FFFB601CC4B2162CF6DB10BD00002A
:101B00007B0000200038014010B500F0BFF8002431
:101B100006E00548015D054800F0EBFB601CC4B21F
:101B2000162CF6DB10BD00009100002000380140AB
:101B300010B500F0ABF8002406E00548015D05484B
:101B400000F0D7FB601CC4B2162CF6DB10BD000001
:101B5000A70000200038014010B500F097F80024DD
:101B600006E00548015D054800F0C3FB601CC4B2F7
:101B7000162CF6DB10BD0000D30000200038014019
:101B800010B500F083F8002406E00548015D054823
:101B900000F0AFFB601CC4B2162CF6DB10BD0000D9
:101BA000650000200038014010B500F06FF80024F7
:101BB00006E00548015D054800F09BFB601CC4B2CF
:101BC000162CF6DB10BD0000BD00002000380140DF
:101BD00010B500F05BF8002406E00548015D0548FB
:101BE00000F087FB601CC4B2162CF6DB10BD0000B1
:101BF000E90000200038014070B505460E48057127
:101C0000012D05D126200C4908750120487504E0F6
:101C10002520094908750120487500F037F800248F
:101C200006E00548015D054800F063FB601CC4B296
:101C3000162CF6DB70BD00002B010020003801409F
:101C400070B50646FF250F480671002405E00D48D3
:101C5000005D284485B2601CC4B2142CF7DB09492E
:101C60000D75280A487500F011F8002406E00548B3
:101C7000015D054800F03DFB601CC4B2162CF6DB8C
:101C800070BD0000FF0000200038014010B5FFF7D4
:101C900001FF002406E00548015D054800F029FB2E
:101CA000601CC4B2042CF6DB10BD000061000020F3
:101CB00000380140704710B500F002F810BD000078
:101CC0000CB50020019000903348006840F480304B
:101CD0003149086000BF3048006800F400300090CF
:101CE0000198401C0190009818B90198B0F5A06FB8
:101CF000F1D12948006800F4003010B101200090B3
:101D000001E0002000900098012843D1234800689A
:101D100040F01000214908600846006820F00300E8
:101D200008600846006840F0020008601A484068F1
:101D3000194948600846406848600846406840F4D1
:101D4000806048600846406820F47C10486008467F
:101D5000406840F4E81048600846006840F0807031
:101D6000086000BF0C48006800F000700028F9D03F
:101D70000948406820F00300074948600846406869
:101D800040F00200486000BF0348406800F00C00CB
:101D90000828F9D10CBD00000010024000200240CC
:101DA00030B50146B1F1807F01D3012030BD21F073
:101DB0007F40401E4FF0E022506150170F22002854
:101DC00007DA13071D0E094B00F00F04241F1D55E1
:101DD00003E013071C0E064B1C5400BF00204FF0FD
:101DE000E0229061072010610020DFE718ED00E09D
:101DF00000E400E031B5104800684FF47A71B0FBA0
:101E0000F1F52846FFF7CCFF002408E000BF4FF0B3
:101E1000E020006900F480300028F8D0641C0098AD
:101E20008442F3D34FF0E020006920F001004FF02E
:101E3000E021086138BD000000000020704700006C
:101E400010B51348006840F00100114908600846C9
:101E50004068104908400E494860084600680E492D
:101E600008400B4908600846006820F4802008609C
:101E70000846406820F4FE0048604FF41F00886068
:101E8000FFF719FF4FF000600449086010BD000023
:101E9000001002400000FFF8FFFFF6FE08ED00E032
:101EA00010B50121880700F02BF898B10A480068A6
:101EB000401C094908600846006844F620618842D1
:101EC00004D300214FF0804000F00EF80121880774
:101ED00000F007F810BD000044010020CA43028250
:101EE0007047CA430282704721B1028842F0010262
:101EF000028004E002884FF6FE731A4002807047A9
:101F000030B50246002000230024158A05EA0103AB
:101F1000958905EA010413B10CB1012000E000200D
:101F200030BD1AB183890B43838102E083898B43DF
:101F300083817047002202881D4B98420ED01D4BB2
:101F400098420BD0B0F1804F08D01B4B984205D07F
:101F50001A4B984202D01A4B984204D14FF68F7315
:101F60001A404B881A43174B984207D0164B984299
:101F700004D04FF6FF431A40CB881A4302808B8867
:101F800083850B8803850A4B98420BD0094B9842F6
:101F900008D00E4B984205D00D4B984202D00D4B05
:101FA000984201D10B7A0386012383827047000097
:101FB000002C0140003401400004004000080040B3
:101FC000000C0040001000400014004000400140A0
:101FD000004401400048014010B5FEF76BFBFEF7DE
:101FE0008FFB10BD10B501218807FFF77DFF10BDE5
:101FF00010B520210A4800F0D9F801280FD108486F
:1020000000F072F9C1B2074802780078401C054B15
:102010001870054881542021014800F02BF810BDAC
:102020000038014060000020BC01002010B52021D4
:102030000C4800F0BBF8012812D103200A490870AF
:10204000084800F051F9C1B2084802780078401CF5
:10205000064B1870064881542021024800F00AF807
:1020600010BD0000004400404C00002098010020FA
:10207000D601002001F40072B2F5007F00D100BF4C
:10208000CA430280704721B1828942F400528281A2
:1020900004E082894DF6FF731A4082817047000088
:1020A00000B585B001210420FFF77AFC01218803E7
:1020B000FFF776FC4FF40070ADF8100018208DF893
:1020C000130003208DF8120004A93548FEF764FEC2
:1020D0004FF48060ADF8100004208DF8130004A9BF
:1020E0002F48FEF759FE4FF4E13000900020ADF884
:1020F0000400ADF80600ADF80800ADF80C000C20A7
:10210000ADF80A006946274800F082F80121042052
:10211000FFF746FC01214804FFF732FC0420ADF82C
:10212000100018208DF8130003208DF8120004A968
:102130001B48FEF731FE0820ADF8100004208DF892
:10214000130004A91648FEF727FE4FF4E130009073
:102150000020ADF80400ADF80600ADF80800ADF8B9
:102160000C000C20ADF80A0069460F4800F050F84A
:10217000FFF754FB012240F225510A4800F023F8F2
:10218000012240F22551084800F01DF801210548C0
:10219000FFF779FF01210448FFF775FF05B000BD87
:1021A0000008014000380140004400400246002081
:1021B000B1F5007F00D100BF13880B400BB10120A7
:1021C00000E000207047F0B50346002400260025FB
:1021D000002040F66A17B94200D100BF1846C1F38B
:1021E000421401F01F06012707FA06F5012C01D160
:1021F0000C3004E0022C01D1103000E014301AB190
:1022000007682F43076002E00768AF430760F0BD2F
:102210002DE9F04786B005460E460024A24600BFD1
:10222000A1460027B08900B100BF2F462C8A4CF68A
:10223000FF700440F08804432C82AC894EF6F31002
:102240000440B08831890843718908430443AC8154
:10225000AC8A4FF6FF400440B0890443AC8201A829
:10226000FFF7AEFB1F48874202D1DDF810A001E066
:10227000DDF80CA0A88900F4004040B10AEBCA00C8
:1022800000EB0A1031684900B0FBF1F807E00AEBF7
:10229000CA0000EB0A1031688900B0FBF1F8642035
:1022A000B8FBF0F004012009642101FB1089A88922
:1022B00000F4004040B1322000EBC900B0FBF1F067
:1022C00000F00700044308E0322000EB091064210D
:1022D000B0FBF1F000F00F0004432C8106B0BDE824
:1022E000F08700000038014001468888C0F30800EC
:1022F000704770B504460D462946204600F008F8A0
:1023000000BF80212046FFF751FF0028F9D070BDA3
:10231000C1F308028280704710B54FF480711D48E8
:10232000FEF7C7FD4FF400711A48FEF7C0FD01200B
:10233000FFF762FC4FF00130FEF79EF94FF4807119
:102340001448FEF7B4FD4FF400711248FEF7AFFDDC
:1023500041F28830FFF74EFD4FF400710D48FEF753
:10236000A8FD4FF480710B48FEF7A1FD0020FFF798
:1023700043FC0948FEF780F94FF480710548FEF7E9
:1023800096FD4FF400710348FEF791FD00200349CC
:10239000086010BD000C014000030101280000206E
:1023A00000BFFEE708E0002106480078401EC0B2EA
:1023B000044A1070044A1154024800780028F2DCE4
:1023C0007047000098010020D60100202DE9F0415F
:1023D00004460E4617460848447046728772002528
:1023E00005E00548415D0548FFF783FF6D1CA01C13
:1023F0008542F6D3BDE8F08154010020004400403E
:1024000010B5002405E00448015D0448FFF771FFA2
:10241000641C042CF7D310BD94010020004400403C
:10242000FFF73EFEFFF77AFAFEF7E8FFFFF7D4FD6D
:10243000FFF77CF9FEF7A6FA32E01A480068032895
:1024400018D21948007830B1012805D0022806D0EA
:1024500003280AD106E00CE0FEF7C4FB09E0FFF711
:10246000BDF806E0FFF7F4F803E000200E4908701D
:1024700000BF00BF0D48006844F6206188420FD3BA
:102480004FF480510A48FEF714FDFEF7FFFF0020CD
:10249000084908600849C87301210846FFF71CFA7B
:1024A000CBE70000280000204C0000204401002061
:1024B000000C0140480000209C010020DC240008A2
:1024C000000000209C010000280100085825000899
:1024D0009C010020DC060000840100081184A24A4F
:1024E00004680901020304060708090C6910A50223
:1024F00004060822029303050220062355AA0213AC
:10250000202C1F01604BF13A6116F2013A6216E984
:102510002E1463016132032904A1146601451A04D3
:102520004239C6913C520163ABC9183C7201402C40
:10253000E10C11440144420C115101249A2A261144
:102540002310271AE0A6114AD38B12FC1A03AC19E8
:08255000F8013745FE01FEFF12
:04000005080000ED02
:00000001FF
